{
  "contractName": "sendo",
  "abi": [
    {
      "anonymous": false,
      "inputs": [
        {
          "indexed": true,
          "internalType": "address",
          "name": "from",
          "type": "address"
        },
        {
          "indexed": true,
          "internalType": "address",
          "name": "to",
          "type": "address"
        },
        {
          "indexed": false,
          "internalType": "uint256",
          "name": "amount",
          "type": "uint256"
        }
      ],
      "name": "Transfer",
      "type": "event"
    },
    {
      "inputs": [
        {
          "internalType": "address payable",
          "name": "_to",
          "type": "address"
        }
      ],
      "name": "sendCrypto",
      "outputs": [],
      "stateMutability": "payable",
      "type": "function",
      "payable": true
    }
  ],
  "bytecode": "0x608060405234801561001057600080fd5b50610293806100206000396000f3fe60806040526004361061001e5760003560e01c8063fc9449b914610023575b600080fd5b61003d60048036038101906100389190610146565b61003f565b005b60003411610082576040517f08c379a0000000000000000000000000000000000000000000000000000000008152600401610079906101be565b60405180910390fd5b8073ffffffffffffffffffffffffffffffffffffffff166108fc349081150290604051600060405180830381858888f193505050501580156100c8573d6000803e3d6000fd5b508073ffffffffffffffffffffffffffffffffffffffff163373ffffffffffffffffffffffffffffffffffffffff167fddf252ad1be2c89b69c2b068fc378daa952ba7f163c4a11628f55a4df523b3ef3460405161012691906101de565b60405180910390a350565b60008135905061014081610246565b92915050565b60006020828403121561015857600080fd5b600061016684828501610131565b91505092915050565b600061017c601d836101f9565b91507f4d7573742073656e6420736f6d652063727970746f63757272656e63790000006000830152602082019050919050565b6101b88161023c565b82525050565b600060208201905081810360008301526101d78161016f565b9050919050565b60006020820190506101f360008301846101af565b92915050565b600082825260208201905092915050565b60006102158261021c565b9050919050565b600073ffffffffffffffffffffffffffffffffffffffff82169050919050565b6000819050919050565b61024f8161020a565b811461025a57600080fd5b5056fea2646970667358221220790a6bc78e490b801ae361c8b61556c595afb22358c5b93a63c1fbbac4f409d464736f6c63430008000033",
  "immutableReferences": {},
  "source": "// SPDX-License-Identifier: MIT\npragma solidity >=0.4.22 <0.9.0;\n\ncontract sendo {\n  event Transfer(address indexed from, address indexed to, uint256 amount);\n\n    function sendCrypto(address payable _to) external payable {\n        require(msg.value > 0, \"Must send some cryptocurrency\");\n        _to.transfer(msg.value);\n        emit Transfer(msg.sender, _to, msg.value);\n    }\n}\n",
  "sourcePath": "C:\\Storage\\Coding Stuff\\Blockchain\\sendo\\contracts\\sendo.sol",
  "compiler": {
    "name": "solc",
    "version": "0.8.0+commit.c7dfd78e.Emscripten.clang"
  },
  "schemaVersion": "3.4.13",
  "updatedAt": "2023-04-23T17:28:13.429Z",
  "networkType": "ethereum",
  "devdoc": {
    "kind": "dev",
    "methods": {},
    "version": 1
  },
  "userdoc": {
    "kind": "user",
    "methods": {},
    "version": 1
  }
}